{
  "address": "0x1EbC9aAe56D1574d1BFA1BC086f3c3AA3dff9B12",
  "abi": [
    {
      "inputs": [],
      "name": "ApprovalCallerNotOwnerNorApproved",
      "type": "error"
    },
    {
      "inputs": [],
      "name": "ApprovalQueryForNonexistentToken",
      "type": "error"
    },
    {
      "inputs": [],
      "name": "BalanceQueryForZeroAddress",
      "type": "error"
    },
    {
      "inputs": [],
      "name": "InvalidQueryRange",
      "type": "error"
    },
    {
      "inputs": [],
      "name": "MintERC2309QuantityExceedsLimit",
      "type": "error"
    },
    {
      "inputs": [],
      "name": "MintToZeroAddress",
      "type": "error"
    },
    {
      "inputs": [],
      "name": "MintZeroQuantity",
      "type": "error"
    },
    {
      "inputs": [],
      "name": "OwnerQueryForNonexistentToken",
      "type": "error"
    },
    {
      "inputs": [],
      "name": "OwnershipNotInitializedForExtraData",
      "type": "error"
    },
    {
      "inputs": [],
      "name": "TransferCallerNotOwnerNorApproved",
      "type": "error"
    },
    {
      "inputs": [],
      "name": "TransferFromIncorrectOwner",
      "type": "error"
    },
    {
      "inputs": [],
      "name": "TransferToNonERC721ReceiverImplementer",
      "type": "error"
    },
    {
      "inputs": [],
      "name": "TransferToZeroAddress",
      "type": "error"
    },
    {
      "inputs": [],
      "name": "URIQueryForNonexistentToken",
      "type": "error"
    },
    {
      "anonymous": false,
      "inputs": [
        {
          "indexed": true,
          "internalType": "address",
          "name": "owner",
          "type": "address"
        },
        {
          "indexed": true,
          "internalType": "address",
          "name": "approved",
          "type": "address"
        },
        {
          "indexed": true,
          "internalType": "uint256",
          "name": "tokenId",
          "type": "uint256"
        }
      ],
      "name": "Approval",
      "type": "event"
    },
    {
      "anonymous": false,
      "inputs": [
        {
          "indexed": true,
          "internalType": "address",
          "name": "owner",
          "type": "address"
        },
        {
          "indexed": true,
          "internalType": "address",
          "name": "operator",
          "type": "address"
        },
        {
          "indexed": false,
          "internalType": "bool",
          "name": "approved",
          "type": "bool"
        }
      ],
      "name": "ApprovalForAll",
      "type": "event"
    },
    {
      "anonymous": false,
      "inputs": [
        {
          "indexed": false,
          "internalType": "string",
          "name": "_uri",
          "type": "string"
        }
      ],
      "name": "BaseUriUpdated",
      "type": "event"
    },
    {
      "anonymous": false,
      "inputs": [
        {
          "indexed": true,
          "internalType": "uint256",
          "name": "fromTokenId",
          "type": "uint256"
        },
        {
          "indexed": false,
          "internalType": "uint256",
          "name": "toTokenId",
          "type": "uint256"
        },
        {
          "indexed": true,
          "internalType": "address",
          "name": "from",
          "type": "address"
        },
        {
          "indexed": true,
          "internalType": "address",
          "name": "to",
          "type": "address"
        }
      ],
      "name": "ConsecutiveTransfer",
      "type": "event"
    },
    {
      "anonymous": false,
      "inputs": [
        {
          "indexed": true,
          "internalType": "address",
          "name": "previousOwner",
          "type": "address"
        },
        {
          "indexed": true,
          "internalType": "address",
          "name": "newOwner",
          "type": "address"
        }
      ],
      "name": "OwnershipTransferred",
      "type": "event"
    },
    {
      "anonymous": false,
      "inputs": [
        {
          "indexed": false,
          "internalType": "uint256",
          "name": "_hash",
          "type": "uint256"
        }
      ],
      "name": "ProvenanceHashUpdated",
      "type": "event"
    },
    {
      "anonymous": false,
      "inputs": [
        {
          "indexed": false,
          "internalType": "uint256",
          "name": "_value",
          "type": "uint256"
        }
      ],
      "name": "StartingIndexSet",
      "type": "event"
    },
    {
      "anonymous": false,
      "inputs": [
        {
          "indexed": true,
          "internalType": "address",
          "name": "from",
          "type": "address"
        },
        {
          "indexed": true,
          "internalType": "address",
          "name": "to",
          "type": "address"
        },
        {
          "indexed": true,
          "internalType": "uint256",
          "name": "tokenId",
          "type": "uint256"
        }
      ],
      "name": "Transfer",
      "type": "event"
    },
    {
      "anonymous": false,
      "inputs": [
        {
          "indexed": false,
          "internalType": "address",
          "name": "_whitelistSigner",
          "type": "address"
        }
      ],
      "name": "WhitelistSignerUpdated",
      "type": "event"
    },
    {
      "inputs": [],
      "name": "MAX_MINTABLE",
      "outputs": [
        {
          "internalType": "uint256",
          "name": "",
          "type": "uint256"
        }
      ],
      "stateMutability": "view",
      "type": "function"
    },
    {
      "inputs": [],
      "name": "MAX_SUPPLY",
      "outputs": [
        {
          "internalType": "uint256",
          "name": "",
          "type": "uint256"
        }
      ],
      "stateMutability": "view",
      "type": "function"
    },
    {
      "inputs": [],
      "name": "MINT_PRICE",
      "outputs": [
        {
          "internalType": "uint256",
          "name": "",
          "type": "uint256"
        }
      ],
      "stateMutability": "view",
      "type": "function"
    },
    {
      "inputs": [
        {
          "internalType": "address",
          "name": "to",
          "type": "address"
        },
        {
          "internalType": "uint256",
          "name": "tokenId",
          "type": "uint256"
        }
      ],
      "name": "approve",
      "outputs": [],
      "stateMutability": "payable",
      "type": "function"
    },
    {
      "inputs": [
        {
          "internalType": "address",
          "name": "owner",
          "type": "address"
        }
      ],
      "name": "balanceOf",
      "outputs": [
        {
          "internalType": "uint256",
          "name": "",
          "type": "uint256"
        }
      ],
      "stateMutability": "view",
      "type": "function"
    },
    {
      "inputs": [
        {
          "internalType": "uint256",
          "name": "numberOfTokens",
          "type": "uint256"
        }
      ],
      "name": "buyPublic",
      "outputs": [],
      "stateMutability": "payable",
      "type": "function"
    },
    {
      "inputs": [
        {
          "internalType": "uint256",
          "name": "tokenId",
          "type": "uint256"
        }
      ],
      "name": "explicitOwnershipOf",
      "outputs": [
        {
          "components": [
            {
              "internalType": "address",
              "name": "addr",
              "type": "address"
            },
            {
              "internalType": "uint64",
              "name": "startTimestamp",
              "type": "uint64"
            },
            {
              "internalType": "bool",
              "name": "burned",
              "type": "bool"
            },
            {
              "internalType": "uint24",
              "name": "extraData",
              "type": "uint24"
            }
          ],
          "internalType": "struct IERC721A.TokenOwnership",
          "name": "",
          "type": "tuple"
        }
      ],
      "stateMutability": "view",
      "type": "function"
    },
    {
      "inputs": [
        {
          "internalType": "uint256[]",
          "name": "tokenIds",
          "type": "uint256[]"
        }
      ],
      "name": "explicitOwnershipsOf",
      "outputs": [
        {
          "components": [
            {
              "internalType": "address",
              "name": "addr",
              "type": "address"
            },
            {
              "internalType": "uint64",
              "name": "startTimestamp",
              "type": "uint64"
            },
            {
              "internalType": "bool",
              "name": "burned",
              "type": "bool"
            },
            {
              "internalType": "uint24",
              "name": "extraData",
              "type": "uint24"
            }
          ],
          "internalType": "struct IERC721A.TokenOwnership[]",
          "name": "",
          "type": "tuple[]"
        }
      ],
      "stateMutability": "view",
      "type": "function"
    },
    {
      "inputs": [
        {
          "internalType": "uint256",
          "name": "tokenId",
          "type": "uint256"
        }
      ],
      "name": "getApproved",
      "outputs": [
        {
          "internalType": "address",
          "name": "",
          "type": "address"
        }
      ],
      "stateMutability": "view",
      "type": "function"
    },
    {
      "inputs": [
        {
          "internalType": "address",
          "name": "owner",
          "type": "address"
        },
        {
          "internalType": "address",
          "name": "operator",
          "type": "address"
        }
      ],
      "name": "isApprovedForAll",
      "outputs": [
        {
          "internalType": "bool",
          "name": "",
          "type": "bool"
        }
      ],
      "stateMutability": "view",
      "type": "function"
    },
    {
      "inputs": [
        {
          "internalType": "address",
          "name": "account",
          "type": "address"
        }
      ],
      "name": "mintedCount",
      "outputs": [
        {
          "internalType": "uint256",
          "name": "",
          "type": "uint256"
        }
      ],
      "stateMutability": "view",
      "type": "function"
    },
    {
      "inputs": [],
      "name": "name",
      "outputs": [
        {
          "internalType": "string",
          "name": "",
          "type": "string"
        }
      ],
      "stateMutability": "view",
      "type": "function"
    },
    {
      "inputs": [],
      "name": "owner",
      "outputs": [
        {
          "internalType": "address",
          "name": "",
          "type": "address"
        }
      ],
      "stateMutability": "view",
      "type": "function"
    },
    {
      "inputs": [
        {
          "internalType": "uint256",
          "name": "tokenId",
          "type": "uint256"
        }
      ],
      "name": "ownerOf",
      "outputs": [
        {
          "internalType": "address",
          "name": "",
          "type": "address"
        }
      ],
      "stateMutability": "view",
      "type": "function"
    },
    {
      "inputs": [],
      "name": "renounceOwnership",
      "outputs": [],
      "stateMutability": "nonpayable",
      "type": "function"
    },
    {
      "inputs": [
        {
          "internalType": "address",
          "name": "from",
          "type": "address"
        },
        {
          "internalType": "address",
          "name": "to",
          "type": "address"
        },
        {
          "internalType": "uint256",
          "name": "tokenId",
          "type": "uint256"
        }
      ],
      "name": "safeTransferFrom",
      "outputs": [],
      "stateMutability": "payable",
      "type": "function"
    },
    {
      "inputs": [
        {
          "internalType": "address",
          "name": "from",
          "type": "address"
        },
        {
          "internalType": "address",
          "name": "to",
          "type": "address"
        },
        {
          "internalType": "uint256",
          "name": "tokenId",
          "type": "uint256"
        },
        {
          "internalType": "bytes",
          "name": "_data",
          "type": "bytes"
        }
      ],
      "name": "safeTransferFrom",
      "outputs": [],
      "stateMutability": "payable",
      "type": "function"
    },
    {
      "inputs": [
        {
          "internalType": "address",
          "name": "operator",
          "type": "address"
        },
        {
          "internalType": "bool",
          "name": "approved",
          "type": "bool"
        }
      ],
      "name": "setApprovalForAll",
      "outputs": [],
      "stateMutability": "nonpayable",
      "type": "function"
    },
    {
      "inputs": [
        {
          "internalType": "string",
          "name": "baseURI",
          "type": "string"
        }
      ],
      "name": "setBaseURI",
      "outputs": [],
      "stateMutability": "nonpayable",
      "type": "function"
    },
    {
      "inputs": [
        {
          "internalType": "bytes4",
          "name": "interfaceId",
          "type": "bytes4"
        }
      ],
      "name": "supportsInterface",
      "outputs": [
        {
          "internalType": "bool",
          "name": "",
          "type": "bool"
        }
      ],
      "stateMutability": "view",
      "type": "function"
    },
    {
      "inputs": [],
      "name": "symbol",
      "outputs": [
        {
          "internalType": "string",
          "name": "",
          "type": "string"
        }
      ],
      "stateMutability": "view",
      "type": "function"
    },
    {
      "inputs": [
        {
          "internalType": "uint256",
          "name": "tokenId",
          "type": "uint256"
        }
      ],
      "name": "tokenURI",
      "outputs": [
        {
          "internalType": "string",
          "name": "",
          "type": "string"
        }
      ],
      "stateMutability": "view",
      "type": "function"
    },
    {
      "inputs": [
        {
          "internalType": "address",
          "name": "owner",
          "type": "address"
        }
      ],
      "name": "tokensOfOwner",
      "outputs": [
        {
          "internalType": "uint256[]",
          "name": "",
          "type": "uint256[]"
        }
      ],
      "stateMutability": "view",
      "type": "function"
    },
    {
      "inputs": [
        {
          "internalType": "address",
          "name": "owner",
          "type": "address"
        },
        {
          "internalType": "uint256",
          "name": "start",
          "type": "uint256"
        },
        {
          "internalType": "uint256",
          "name": "stop",
          "type": "uint256"
        }
      ],
      "name": "tokensOfOwnerIn",
      "outputs": [
        {
          "internalType": "uint256[]",
          "name": "",
          "type": "uint256[]"
        }
      ],
      "stateMutability": "view",
      "type": "function"
    },
    {
      "inputs": [],
      "name": "totalSupply",
      "outputs": [
        {
          "internalType": "uint256",
          "name": "",
          "type": "uint256"
        }
      ],
      "stateMutability": "view",
      "type": "function"
    },
    {
      "inputs": [
        {
          "internalType": "address",
          "name": "from",
          "type": "address"
        },
        {
          "internalType": "address",
          "name": "to",
          "type": "address"
        },
        {
          "internalType": "uint256",
          "name": "tokenId",
          "type": "uint256"
        }
      ],
      "name": "transferFrom",
      "outputs": [],
      "stateMutability": "payable",
      "type": "function"
    },
    {
      "inputs": [
        {
          "internalType": "address",
          "name": "newOwner",
          "type": "address"
        }
      ],
      "name": "transferOwnership",
      "outputs": [],
      "stateMutability": "nonpayable",
      "type": "function"
    },
    {
      "inputs": [],
      "name": "withdraw",
      "outputs": [],
      "stateMutability": "nonpayable",
      "type": "function"
    }
  ],
  "transactionHash": "0x26ca75abc999ee0958dd4633da36ceaff05bb3dced8d9443e9355ef26738173f",
  "args": [],
  "numDeployments": 3,
  "solcInputHash": "4ac3e40bb107abe23e38eec1790db72b",
  "bytecode": "0x60803462000349576040906001600160401b0390808301828111828210176200025c578352600b81526020916a4e4654204558414d504c4560a81b83830152835192848401848110838211176200025c5785526003938481526213919560ea1b828201528351918383116200025c57600254926001958685811c951680156200033e575b838610146200023b578190601f95868111620002e7575b5083908683116001146200027e5760009262000272575b505060001982891b1c191690861b176002555b81519384116200025c5785548581811c9116801562000251575b828210146200023b57838111620001f0575b50809284116001146200018657509282939183926000946200017a575b50501b9160001990841b1c19161790555b600080805560088054336001600160a01b03198216811790925592519290916001600160a01b03909116907f8be0079c531659141344cd1fd0a4f28419497f9722a3daafe3b4186f6b6457e09080a3611e8d90816200034f8239f35b0151925038806200010d565b919083601f1981168760005284600020946000905b88838310620001d55750505010620001bc575b505050811b0190556200011e565b015160001983861b60f8161c19169055388080620001ae565b8587015188559096019594850194879350908101906200019b565b86600052816000208480870160051c82019284881062000231575b0160051c019086905b82811062000224575050620000f0565b6000815501869062000214565b925081926200020b565b634e487b7160e01b600052602260045260246000fd5b90607f1690620000de565b634e487b7160e01b600052604160045260246000fd5b015190503880620000b1565b90889350601f198316916002600052856000209260005b87828210620002d05750508411620002b7575b505050811b01600255620000c4565b0151600019838b1b60f8161c19169055388080620002a8565b8385015186558c9790950194938401930162000295565b9091506002600052836000208680850160051c82019286861062000334575b918a91869594930160051c01915b828110620003245750506200009a565b600081558594508a910162000314565b9250819262000306565b94607f169462000083565b600080fdfe60806040526004361015610013575b600080fd5b60003560e01c806301ffc9a71461024357806306fdde031461023a578063081812fc14610231578063095ea7b31461022857806318160ddd1461021f57806323b872dd1461021657806332cb6b0c1461020d5780633ccfd60b146102045780633f879faf146101fb57806342842e0e146101f257806355f804b3146101e95780635bbb2177146101e05780636352211e146101d757806370a08231146101ce578063715018a6146101c55780638462151c146101bc5780638da5cb5b146101b357806395d89b41146101aa57806399a2557a146101a1578063a22cb46514610198578063b88d4fde1461018f578063c002d23d14610186578063c0c8dd071461017d578063c23dc68f14610174578063c87b56dd1461016b578063e985e9c514610162578063f2fde38b146101595763fddcb5ea1461015157600080fd5b61000e611154565b5061000e61106e565b5061000e61100b565b5061000e610f5c565b5061000e610ef6565b5061000e610e4c565b5061000e610e2a565b5061000e610dce565b5061000e610d36565b5061000e610cfd565b5061000e610c55565b5061000e610c2d565b5061000e610b72565b5061000e610acd565b5061000e610aa1565b5061000e610a71565b5061000e610a0a565b5061000e61081d565b5061000e610734565b5061000e610717565b5061000e61069f565b5061000e610681565b5061000e61066c565b5061000e610613565b5061000e610525565b5061000e61048b565b5061000e6103a5565b5061000e610276565b7fffffffff0000000000000000000000000000000000000000000000000000000081160361000e57565b503461000e57602060031936011261000e5760207fffffffff000000000000000000000000000000000000000000000000000000006004356102b78161024c565b167f01ffc9a700000000000000000000000000000000000000000000000000000000811490811561031f575b81156102f5575b506040519015158152f35b7f5b5e139f00000000000000000000000000000000000000000000000000000000915014386102ea565b7f80ac58cd00000000000000000000000000000000000000000000000000000000811491506102e3565b60005b83811061035c5750506000910152565b818101518382015260200161034c565b90601f19601f60209361038a81518092818752878088019101610349565b0116010190565b9060206103a292818152019061036c565b90565b503461000e576000806003193601126104885760405190806002546103c98161121c565b8085529160019180831690811561045e5750600114610403575b6103ff856103f381870382610798565b60405191829182610391565b0390f35b9250600283527f405787fa12a823e0f2b7631cc41b3ba8828b3321ca811111fa75cd3aa3bb5ace5b8284106104465750505081016020016103f3826103ff6103e3565b8054602085870181019190915290930192810161042b565b8695506103ff969350602092506103f394915060ff191682840152151560051b82010192936103e3565b80fd5b503461000e57602060031936011261000e576004356104a98161152d565b156104cf57600052600660205260206001600160a01b0360406000205416604051908152f35b60046040517fcf4700e4000000000000000000000000000000000000000000000000000000008152fd5b600435906001600160a01b038216820361000e57565b602435906001600160a01b038216820361000e57565b50604060031936011261000e5761053a6104f9565b6024356001600160a01b038061054f836114a7565b16908133036105b7575b6000838152600660205260408120805473ffffffffffffffffffffffffffffffffffffffff19166001600160a01b0387161790559316907f8c5be1e5ebec7d5bd14f71427d1e84f3dd0314c0f7b2291e5b200ac8c7c3b9258480a480f35b81600052600760205260ff6105e3336040600020906001600160a01b0316600052602052604060002090565b54166105595760046040517fcfb3b942000000000000000000000000000000000000000000000000000000008152fd5b503461000e57600060031936011261000e5760206000546001549003604051908152f35b600319606091011261000e576001600160a01b0390600435828116810361000e5791602435908116810361000e579060443590565b5061067f61067936610637565b91611556565b005b503461000e57600060031936011261000e5760206040516000198152f35b503461000e57600080600319360112610488576106ba61118f565b8080808047335af16106ca611423565b50156106d35780f35b606460405162461bcd60e51b815260206004820152600f60248201527f5769746864726177206661696c656400000000000000000000000000000000006044820152fd5b503461000e57600060031936011261000e57602060405160648152f35b5061067f61074136610637565b906040519261074f8461076f565b60008452611789565b50634e487b7160e01b600052604160045260246000fd5b6020810190811067ffffffffffffffff82111761078b57604052565b610793610758565b604052565b90601f601f19910116810190811067ffffffffffffffff82111761078b57604052565b601f19601f60209267ffffffffffffffff81116107d9575b01160190565b6107e1610758565b6107d3565b9291926107f2826107bb565b916108006040519384610798565b82948184528183011161000e578281602093846000960137010152565b503461000e5760208060031936011261000e5767ffffffffffffffff60043581811161000e573660238201121561000e576108629036906024816004013591016107e6565b9161086b61118f565b825191821161097d575b61088982610884600a5461121c565b611256565b80601f83116001146108f3575081926000926108e8575b50506000198260011b9260031b1c191617600a555b7f24a9152dc695ecc801ad580886331ee12d7aac0fa2ae341a5ae3c2ccae36cb4f604051806108e38161136c565b0390a1005b0151905038806108a0565b90601f19831693610926600a6000527fc65a7bb8d6351c1cf70c95a316cc6a92839c986682d98bc35f958f4883f9d2a890565b926000905b868210610965575050836001951061094c575b505050811b01600a556108b5565b015160001960f88460031b161c1916905538808061093e565b8060018596829496860151815501950193019061092b565b610985610758565b610875565b6020908160408183019282815285518094520193019160005b8281106109b1575050505090565b90919293826080826109fe600194895162ffffff606080926001600160a01b03815116855267ffffffffffffffff6020820151166020860152604081015115156040860152015116910152565b019501939291016109a3565b503461000e57602060031936011261000e5767ffffffffffffffff60043581811161000e573660238201121561000e57806004013591821161000e573660248360051b8301011161000e576103ff916024610a659201611c3c565b6040519182918261098a565b503461000e57602060031936011261000e5760206001600160a01b03610a986004356114a7565b16604051908152f35b503461000e57602060031936011261000e576020610ac5610ac06104f9565b611453565b604051908152f35b503461000e5760008060031936011261048857610ae861118f565b806001600160a01b0360085473ffffffffffffffffffffffffffffffffffffffff198116600855167f8be0079c531659141344cd1fd0a4f28419497f9722a3daafe3b4186f6b6457e08280a380f35b6020908160408183019282815285518094520193019160005b828110610b5e575050505090565b835185529381019392810192600101610b50565b503461000e57602060031936011261000e57610b8c6104f9565b600080610b9883611453565b91610ba283611cdb565b93610bab611aee565b506001600160a01b0390811691835b858503610bcf57604051806103ff8982610b37565b610bd881611b80565b6040810151610c2457516001600160a01b0316838116610c1b575b506001908484841614610c07575b01610bba565b80610c15838801978a611c1a565b52610c01565b91506001610bf3565b50600190610c01565b503461000e57600060031936011261000e5760206001600160a01b0360085416604051908152f35b503461000e57600080600319360112610488576040519080600354610c798161121c565b8085529160019180831690811561045e5750600114610ca2576103ff856103f381870382610798565b9250600383527fc2575a0e9e593c00f959f8c92f12db2869c3395a3b0502d05e2516446f71f85b5b828410610ce55750505081016020016103f3826103ff6103e3565b80546020858701810191909152909301928101610cca565b503461000e57606060031936011261000e576103ff610d2a610d1d6104f9565b6044359060243590611d0c565b60405191829182610b37565b503461000e57604060031936011261000e57610d506104f9565b6024359081151580920361000e576001600160a01b0390336000526007602052610d91816040600020906001600160a01b0316600052602052604060002090565b60ff1981541660ff851617905560405192835216907f17307eab39ab6107e8899845ad3d59bd9653f200f220920489ca2b5937696c3160203392a3005b50608060031936011261000e57610de36104f9565b610deb61050f565b6064359167ffffffffffffffff831161000e573660238401121561000e57610e2061067f9336906024816004013591016107e6565b9160443591611789565b503461000e57600060031936011261000e576020604051655af3107a40008152f35b50602060031936011261000e576004356000903382526009602052604082205490808201809211610ee9575b825481810110610edc575b60648211610ed857610ec891610eb2655af3107a4000808402908482041484151715610ecb575b3410156111fe565b336000908152600960205260409020553361195f565b80f35b610ed36111e7565b610eaa565b8280fd5b610ee46111e7565b610e83565b610ef16111e7565b610e78565b503461000e57602060031936011261000e576080610f15600435611b32565b610f5a604051809262ffffff606080926001600160a01b03815116855267ffffffffffffffff6020820151166020860152604081015115156040860152015116910152565bf35b503461000e57602060031936011261000e57600435610f7a8161152d565b1561000e57604051610f9681610f8f816112c7565b0382610798565b60405160a08101604052600019608082019360008552935b0192600a90818106603001855304928315610fcc5760001990610fae565b6103f3906103ff93610fff610ff9946080601f199485810192030181526040519586936020850190611205565b90611205565b03908101835282610798565b503461000e57604060031936011261000e57602060ff61106261102c6104f9565b6001600160a01b0361103c61050f565b9116600052600784526040600020906001600160a01b0316600052602052604060002090565b54166040519015158152f35b503461000e57602060031936011261000e576110886104f9565b61109061118f565b6001600160a01b038091169081156110ea576008548273ffffffffffffffffffffffffffffffffffffffff19821617600855167f8be0079c531659141344cd1fd0a4f28419497f9722a3daafe3b4186f6b6457e0600080a3005b608460405162461bcd60e51b815260206004820152602660248201527f4f776e61626c653a206e6577206f776e657220697320746865207a65726f206160448201527f64647265737300000000000000000000000000000000000000000000000000006064820152fd5b503461000e57602060031936011261000e576001600160a01b036111766104f9565b1660005260096020526020604060002054604051908152f35b6001600160a01b036008541633036111a357565b606460405162461bcd60e51b815260206004820152602060248201527f4f776e61626c653a2063616c6c6572206973206e6f7420746865206f776e65726044820152fd5b50634e487b7160e01b600052601160045260246000fd5b1561000e57565b9061121860209282815194859201610349565b0190565b90600182811c9216801561124c575b602083101461123657565b634e487b7160e01b600052602260045260246000fd5b91607f169161122b565b601f8111611262575050565b600090600a82527fc65a7bb8d6351c1cf70c95a316cc6a92839c986682d98bc35f958f4883f9d2a8906020601f850160051c830194106112bd575b601f0160051c01915b8281106112b257505050565b8181556001016112a6565b909250829061129d565b600a54600092916112d78261121c565b8082529160019081811690811561134e57506001146112f557505050565b91929350600a6000527fc65a7bb8d6351c1cf70c95a316cc6a92839c986682d98bc35f958f4883f9d2a8916000925b84841061133657505060209250010190565b80546020858501810191909152909301928101611324565b9050602094955060ff1991509291921683830152151560051b010190565b6020808252600091600a54916113818361121c565b92838284015260019081811690816000146113ff57506001146113a6575b5050505090565b600a60009081529394507fc65a7bb8d6351c1cf70c95a316cc6a92839c986682d98bc35f958f4883f9d2a85b8585106113eb575050506040925001013880808061139f565b8054858501604001529382019381016113d2565b9150506040945060ff1991509291921683830152151560051b01013880808061139f565b3d1561144e573d90611434826107bb565b916114426040519384610798565b82523d6000602084013e565b606090565b6001600160a01b0316801561147d57600052600560205267ffffffffffffffff6040600020541690565b60046040517f8f4eb604000000000000000000000000000000000000000000000000000000008152fd5b600081815481106114dd575b60046040517fdf2d9b42000000000000000000000000000000000000000000000000000000008152fd5b81526004906020918083526040928383205494600160e01b861615611504575050506114b3565b93929190935b851561151857505050505090565b6000190180835281855283832054955061150a565b6000548110908161153c575090565b90506000526004602052600160e01b604060002054161590565b90611560836114a7565b6001600160a01b0380841692838284160361175f576000868152600660205260409020805490926115a46001600160a01b03881633908114908414171590565b1590565b6116ea575b82169586156116c0576115fa936115d9926116b6575b506001600160a01b03166000526005602052604060002090565b80546000190190556001600160a01b03166000526005602052604060002090565b805460010190557c0200000000000000000000000000000000000000000000000000000000804260a01b85171761163b866000526004602052604060002090565b5581161561166c575b507fddf252ad1be2c89b69c2b068fc378daa952ba7f163c4a11628f55a4df523b3ef600080a4565b60018401611684816000526004602052604060002090565b5415611691575b50611644565b600054811461168b576116ae906000526004602052604060002090565b55388061168b565b60009055386115bf565b60046040517fea553b34000000000000000000000000000000000000000000000000000000008152fd5b6117306115a0611729336117118b6001600160a01b03166000526007602052604060002090565b906001600160a01b0316600052602052604060002090565b5460ff1690565b156115a95760046040517f59c896be000000000000000000000000000000000000000000000000000000008152fd5b60046040517fa1148100000000000000000000000000000000000000000000000000000000008152fd5b929190611797828286611556565b803b6117a4575b50505050565b6117ad93611915565b156117bb573880808061179e565b60046040516368d2bf6b60e11b8152fd5b9081602091031261000e57516103a28161024c565b6103a293926001600160a01b03608093168252600060208301526040820152816060820152019061036c565b90926103a294936080936001600160a01b0380921684521660208301526040820152816060820152019061036c565b6118866020916001600160a01b03939460006040519586809581947f150b7a02000000000000000000000000000000000000000000000000000000009a8b845233600485016117e1565b0393165af1600091816118e5575b506118bf576118a1611423565b805190816118ba5760046040516368d2bf6b60e11b8152fd5b602001fd5b7fffffffff00000000000000000000000000000000000000000000000000000000161490565b61190791925060203d811161190e575b6118ff8183610798565b8101906117cc565b9038611894565b503d6118f5565b926020916118869360006001600160a01b036040518097819682957f150b7a02000000000000000000000000000000000000000000000000000000009b8c8552336004860161180d565b6040805161196c8161076f565b6000938482528454938115611ac557611998816001600160a01b03166000526005602052604060002090565b68010000000000000001830281540190556001916001600160a01b03821683821460e11b4260a01b1781176119d7886000526004602052604060002090565b558187019684807fddf252ad1be2c89b69c2b068fc378daa952ba7f163c4a11628f55a4df523b3ef9280858d868180a4015b898103611ab65750505015611a8d57858755813b611a2b575b50505050505050565b85039180805b611a4e575b50505050505081540361048857808080808080611a22565b15611a80575b86611a666115a086848701968661183c565b611a705781611a31565b600486516368d2bf6b60e11b8152fd5b858310611a545780611a36565b600485517f2e076300000000000000000000000000000000000000000000000000000000008152fd5b80848c858180a4018590611a09565b600484517fb562e8dd000000000000000000000000000000000000000000000000000000008152fd5b604051906080820182811067ffffffffffffffff821117611b25575b60405260006060838281528260208201528260408201520152565b611b2d610758565b611b0a565b611b3a611aee565b50611b43611aee565b600054821015611b7b5750611b5781611b80565b6040810151611b7b5750611b766103a291611b70611aee565b506114a7565b611b9b565b905090565b611b88611aee565b5060005260046020526103a26040600020545b90611ba4611aee565b916001600160a01b038116835267ffffffffffffffff8160a01c166020840152600160e01b81161515604084015260e81c6060830152565b60209067ffffffffffffffff8111611bf6575b60051b0190565b611bfe610758565b611bef565b50634e487b7160e01b600052603260045260246000fd5b6020918151811015611c2f575b60051b010190565b611c37611c03565b611c27565b90611c4681611bdc565b91611c546040519384610798565b818352601f19611c6383611bdc565b0160005b818110611cc457505060005b828103611c805750505090565b80836001921015611cb7575b611c9b8160051b840135611b32565b611ca58287611c1a565b52611cb08186611c1a565b5001611c73565b611cbf611c03565b611c8c565b602090611ccf611aee565b82828801015201611c67565b90611ce582611bdc565b611cf26040519182610798565b828152601f19611d028294611bdc565b0190602036910137565b9082811015611e2d576000918254808511611e25575b50611d2c81611453565b84831015611e1e57828503818110611e16575b505b611d4a81611cdb565b958115611e0e57611d5a84611b32565b918594604093611d6f6115a086830151151590565b611dfc575b505b8781141580611df2575b15611de557611d8e81611b80565b80850151611ddc57516001600160a01b0390811680611dd3575b509081600192871690881614611dbf575b01611d76565b80611dcd838a01998c611c1a565b52611db9565b96506001611da8565b50600190611db9565b5050959450505050815290565b5081871415611d80565b516001600160a01b0316955038611d74565b945050505050565b905038611d3f565b5082611d41565b935038611d22565b60046040517f32c1995a000000000000000000000000000000000000000000000000000000008152fdfea2646970667358221220478803c00e9c305ff21a5dba061b2e452e309873eac76f7075bb70d6d4d7caf464736f6c63430008110033",
  "devdoc": {
    "kind": "dev",
    "methods": {
      "approve(address,uint256)": {
        "details": "Gives permission to `to` to transfer `tokenId` token to another account. The approval is cleared when the token is transferred. Only a single account can be approved at a time, so approving the zero address clears previous approvals. Requirements: - The caller must own the token or be an approved operator. - `tokenId` must exist. Emits an {Approval} event."
      },
      "balanceOf(address)": {
        "details": "Returns the number of tokens in `owner`'s account."
      },
      "buyPublic(uint256)": {
        "params": {
          "numberOfTokens": "the number of NFTs to buy"
        }
      },
      "explicitOwnershipOf(uint256)": {
        "details": "Returns the `TokenOwnership` struct at `tokenId` without reverting. If the `tokenId` is out of bounds: - `addr = address(0)` - `startTimestamp = 0` - `burned = false` - `extraData = 0` If the `tokenId` is burned: - `addr = <Address of owner before token was burned>` - `startTimestamp = <Timestamp when token was burned>` - `burned = true` - `extraData = <Extra data when token was burned>` Otherwise: - `addr = <Address of owner>` - `startTimestamp = <Timestamp of start of ownership>` - `burned = false` - `extraData = <Extra data at start of ownership>`"
      },
      "explicitOwnershipsOf(uint256[])": {
        "details": "Returns an array of `TokenOwnership` structs at `tokenIds` in order. See {ERC721AQueryable-explicitOwnershipOf}"
      },
      "getApproved(uint256)": {
        "details": "Returns the account approved for `tokenId` token. Requirements: - `tokenId` must exist."
      },
      "isApprovedForAll(address,address)": {
        "details": "Returns if the `operator` is allowed to manage all of the assets of `owner`. See {setApprovalForAll}."
      },
      "mintedCount(address)": {
        "params": {
          "account": "The account to query for"
        }
      },
      "name()": {
        "details": "Returns the token collection name."
      },
      "owner()": {
        "details": "Returns the address of the current owner."
      },
      "ownerOf(uint256)": {
        "details": "Returns the owner of the `tokenId` token. Requirements: - `tokenId` must exist."
      },
      "renounceOwnership()": {
        "details": "Leaves the contract without owner. It will not be possible to call `onlyOwner` functions anymore. Can only be called by the current owner. NOTE: Renouncing ownership will leave the contract without an owner, thereby removing any functionality that is only available to the owner."
      },
      "safeTransferFrom(address,address,uint256)": {
        "details": "Equivalent to `safeTransferFrom(from, to, tokenId, '')`."
      },
      "safeTransferFrom(address,address,uint256,bytes)": {
        "details": "Safely transfers `tokenId` token from `from` to `to`. Requirements: - `from` cannot be the zero address. - `to` cannot be the zero address. - `tokenId` token must exist and be owned by `from`. - If the caller is not `from`, it must be approved to move this token by either {approve} or {setApprovalForAll}. - If `to` refers to a smart contract, it must implement {IERC721Receiver-onERC721Received}, which is called upon a safe transfer. Emits a {Transfer} event."
      },
      "setApprovalForAll(address,bool)": {
        "details": "Approve or remove `operator` as an operator for the caller. Operators can call {transferFrom} or {safeTransferFrom} for any token owned by the caller. Requirements: - The `operator` cannot be the caller. Emits an {ApprovalForAll} event."
      },
      "supportsInterface(bytes4)": {
        "details": "Returns true if this contract implements the interface defined by `interfaceId`. See the corresponding [EIP section](https://eips.ethereum.org/EIPS/eip-165#how-interfaces-are-identified) to learn more about how these ids are created. This function call must use less than 30000 gas."
      },
      "symbol()": {
        "details": "Returns the token collection symbol."
      },
      "tokenURI(uint256)": {
        "params": {
          "tokenId": "token ID"
        }
      },
      "tokensOfOwner(address)": {
        "details": "Returns an array of token IDs owned by `owner`. This function scans the ownership mapping and is O(`totalSupply`) in complexity. It is meant to be called off-chain. See {ERC721AQueryable-tokensOfOwnerIn} for splitting the scan into multiple smaller scans if the collection is large enough to cause an out-of-gas error (10K collections should be fine)."
      },
      "tokensOfOwnerIn(address,uint256,uint256)": {
        "details": "Returns an array of token IDs owned by `owner`, in the range [`start`, `stop`) (i.e. `start <= tokenId < stop`). This function allows for tokens to be queried if the collection grows too big for a single call of {ERC721AQueryable-tokensOfOwner}. Requirements: - `start < stop`"
      },
      "totalSupply()": {
        "details": "Returns the total number of tokens in existence. Burned tokens will reduce the count. To get the total number of tokens minted, please see {_totalMinted}."
      },
      "transferFrom(address,address,uint256)": {
        "details": "Transfers `tokenId` from `from` to `to`. Requirements: - `from` cannot be the zero address. - `to` cannot be the zero address. - `tokenId` token must be owned by `from`. - If the caller is not `from`, it must be approved to move this token by either {approve} or {setApprovalForAll}. Emits a {Transfer} event."
      },
      "transferOwnership(address)": {
        "details": "Transfers ownership of the contract to a new account (`newOwner`). Can only be called by the current owner."
      }
    },
    "version": 1
  },
  "userdoc": {
    "errors": {
      "ApprovalCallerNotOwnerNorApproved()": [
        {
          "notice": "The caller must own the token or be an approved operator."
        }
      ],
      "ApprovalQueryForNonexistentToken()": [
        {
          "notice": "The token does not exist."
        }
      ],
      "BalanceQueryForZeroAddress()": [
        {
          "notice": "Cannot query the balance for the zero address."
        }
      ],
      "InvalidQueryRange()": [
        {
          "notice": "Invalid query range (`start` >= `stop`)."
        }
      ],
      "MintERC2309QuantityExceedsLimit()": [
        {
          "notice": "The `quantity` minted with ERC2309 exceeds the safety limit."
        }
      ],
      "MintToZeroAddress()": [
        {
          "notice": "Cannot mint to the zero address."
        }
      ],
      "MintZeroQuantity()": [
        {
          "notice": "The quantity of tokens minted must be more than zero."
        }
      ],
      "OwnerQueryForNonexistentToken()": [
        {
          "notice": "The token does not exist."
        }
      ],
      "OwnershipNotInitializedForExtraData()": [
        {
          "notice": "The `extraData` cannot be set on an unintialized ownership slot."
        }
      ],
      "TransferCallerNotOwnerNorApproved()": [
        {
          "notice": "The caller must own the token or be an approved operator."
        }
      ],
      "TransferFromIncorrectOwner()": [
        {
          "notice": "The token must be owned by `from`."
        }
      ],
      "TransferToNonERC721ReceiverImplementer()": [
        {
          "notice": "Cannot safely transfer to a contract that does not implement the ERC721Receiver interface."
        }
      ],
      "TransferToZeroAddress()": [
        {
          "notice": "Cannot transfer to the zero address."
        }
      ],
      "URIQueryForNonexistentToken()": [
        {
          "notice": "The token does not exist."
        }
      ]
    },
    "kind": "user",
    "methods": {
      "buyPublic(uint256)": {
        "notice": "Allows users to buy during public sale"
      },
      "mintedCount(address)": {
        "notice": "Returns the number of tokens minted by an account"
      },
      "setBaseURI(string)": {
        "notice": "Set the base URI"
      },
      "tokenURI(uint256)": {
        "notice": "Get token's URI. In case of delayed reveal we give user the json of the placeholer metadata."
      }
    },
    "version": 1
  },
  "storageLayout": {
    "storage": [
      {
        "astId": 757,
        "contract": "contracts/NFT.sol:NFT",
        "label": "_currentIndex",
        "offset": 0,
        "slot": "0",
        "type": "t_uint256"
      },
      {
        "astId": 759,
        "contract": "contracts/NFT.sol:NFT",
        "label": "_burnCounter",
        "offset": 0,
        "slot": "1",
        "type": "t_uint256"
      },
      {
        "astId": 761,
        "contract": "contracts/NFT.sol:NFT",
        "label": "_name",
        "offset": 0,
        "slot": "2",
        "type": "t_string_storage"
      },
      {
        "astId": 763,
        "contract": "contracts/NFT.sol:NFT",
        "label": "_symbol",
        "offset": 0,
        "slot": "3",
        "type": "t_string_storage"
      },
      {
        "astId": 767,
        "contract": "contracts/NFT.sol:NFT",
        "label": "_packedOwnerships",
        "offset": 0,
        "slot": "4",
        "type": "t_mapping(t_uint256,t_uint256)"
      },
      {
        "astId": 771,
        "contract": "contracts/NFT.sol:NFT",
        "label": "_packedAddressData",
        "offset": 0,
        "slot": "5",
        "type": "t_mapping(t_address,t_uint256)"
      },
      {
        "astId": 776,
        "contract": "contracts/NFT.sol:NFT",
        "label": "_tokenApprovals",
        "offset": 0,
        "slot": "6",
        "type": "t_mapping(t_uint256,t_struct(TokenApprovalRef)689_storage)"
      },
      {
        "astId": 782,
        "contract": "contracts/NFT.sol:NFT",
        "label": "_operatorApprovals",
        "offset": 0,
        "slot": "7",
        "type": "t_mapping(t_address,t_mapping(t_address,t_bool))"
      },
      {
        "astId": 7,
        "contract": "contracts/NFT.sol:NFT",
        "label": "_owner",
        "offset": 0,
        "slot": "8",
        "type": "t_address"
      },
      {
        "astId": 514,
        "contract": "contracts/NFT.sol:NFT",
        "label": "_mintedCount",
        "offset": 0,
        "slot": "9",
        "type": "t_mapping(t_address,t_uint256)"
      },
      {
        "astId": 516,
        "contract": "contracts/NFT.sol:NFT",
        "label": "_baseUri",
        "offset": 0,
        "slot": "10",
        "type": "t_string_storage"
      }
    ],
    "types": {
      "t_address": {
        "encoding": "inplace",
        "label": "address",
        "numberOfBytes": "20"
      },
      "t_bool": {
        "encoding": "inplace",
        "label": "bool",
        "numberOfBytes": "1"
      },
      "t_mapping(t_address,t_bool)": {
        "encoding": "mapping",
        "key": "t_address",
        "label": "mapping(address => bool)",
        "numberOfBytes": "32",
        "value": "t_bool"
      },
      "t_mapping(t_address,t_mapping(t_address,t_bool))": {
        "encoding": "mapping",
        "key": "t_address",
        "label": "mapping(address => mapping(address => bool))",
        "numberOfBytes": "32",
        "value": "t_mapping(t_address,t_bool)"
      },
      "t_mapping(t_address,t_uint256)": {
        "encoding": "mapping",
        "key": "t_address",
        "label": "mapping(address => uint256)",
        "numberOfBytes": "32",
        "value": "t_uint256"
      },
      "t_mapping(t_uint256,t_struct(TokenApprovalRef)689_storage)": {
        "encoding": "mapping",
        "key": "t_uint256",
        "label": "mapping(uint256 => struct ERC721A.TokenApprovalRef)",
        "numberOfBytes": "32",
        "value": "t_struct(TokenApprovalRef)689_storage"
      },
      "t_mapping(t_uint256,t_uint256)": {
        "encoding": "mapping",
        "key": "t_uint256",
        "label": "mapping(uint256 => uint256)",
        "numberOfBytes": "32",
        "value": "t_uint256"
      },
      "t_string_storage": {
        "encoding": "bytes",
        "label": "string",
        "numberOfBytes": "32"
      },
      "t_struct(TokenApprovalRef)689_storage": {
        "encoding": "inplace",
        "label": "struct ERC721A.TokenApprovalRef",
        "members": [
          {
            "astId": 688,
            "contract": "contracts/NFT.sol:NFT",
            "label": "value",
            "offset": 0,
            "slot": "0",
            "type": "t_address"
          }
        ],
        "numberOfBytes": "32"
      },
      "t_uint256": {
        "encoding": "inplace",
        "label": "uint256",
        "numberOfBytes": "32"
      }
    }
  }
}