{
  "address": "0x98FfC84C3F9D9eFEbCe82CBC9752A05887A48b69",
  "abi": [
    {
      "inputs": [],
      "stateMutability": "nonpayable",
      "type": "constructor"
    },
    {
      "inputs": [],
      "name": "ApprovalCallerNotOwnerNorApproved",
      "type": "error"
    },
    {
      "inputs": [],
      "name": "ApprovalQueryForNonexistentToken",
      "type": "error"
    },
    {
      "inputs": [],
      "name": "BalanceQueryForZeroAddress",
      "type": "error"
    },
    {
      "inputs": [],
      "name": "InvalidQueryRange",
      "type": "error"
    },
    {
      "inputs": [],
      "name": "MintERC2309QuantityExceedsLimit",
      "type": "error"
    },
    {
      "inputs": [],
      "name": "MintToZeroAddress",
      "type": "error"
    },
    {
      "inputs": [],
      "name": "MintZeroQuantity",
      "type": "error"
    },
    {
      "inputs": [],
      "name": "OwnerQueryForNonexistentToken",
      "type": "error"
    },
    {
      "inputs": [],
      "name": "OwnershipNotInitializedForExtraData",
      "type": "error"
    },
    {
      "inputs": [],
      "name": "TransferCallerNotOwnerNorApproved",
      "type": "error"
    },
    {
      "inputs": [],
      "name": "TransferFromIncorrectOwner",
      "type": "error"
    },
    {
      "inputs": [],
      "name": "TransferToNonERC721ReceiverImplementer",
      "type": "error"
    },
    {
      "inputs": [],
      "name": "TransferToZeroAddress",
      "type": "error"
    },
    {
      "inputs": [],
      "name": "URIQueryForNonexistentToken",
      "type": "error"
    },
    {
      "anonymous": false,
      "inputs": [
        {
          "indexed": true,
          "internalType": "address",
          "name": "owner",
          "type": "address"
        },
        {
          "indexed": true,
          "internalType": "address",
          "name": "approved",
          "type": "address"
        },
        {
          "indexed": true,
          "internalType": "uint256",
          "name": "tokenId",
          "type": "uint256"
        }
      ],
      "name": "Approval",
      "type": "event"
    },
    {
      "anonymous": false,
      "inputs": [
        {
          "indexed": true,
          "internalType": "address",
          "name": "owner",
          "type": "address"
        },
        {
          "indexed": true,
          "internalType": "address",
          "name": "operator",
          "type": "address"
        },
        {
          "indexed": false,
          "internalType": "bool",
          "name": "approved",
          "type": "bool"
        }
      ],
      "name": "ApprovalForAll",
      "type": "event"
    },
    {
      "anonymous": false,
      "inputs": [
        {
          "indexed": false,
          "internalType": "string",
          "name": "_uri",
          "type": "string"
        }
      ],
      "name": "BaseUriUpdated",
      "type": "event"
    },
    {
      "anonymous": false,
      "inputs": [
        {
          "indexed": true,
          "internalType": "uint256",
          "name": "fromTokenId",
          "type": "uint256"
        },
        {
          "indexed": false,
          "internalType": "uint256",
          "name": "toTokenId",
          "type": "uint256"
        },
        {
          "indexed": true,
          "internalType": "address",
          "name": "from",
          "type": "address"
        },
        {
          "indexed": true,
          "internalType": "address",
          "name": "to",
          "type": "address"
        }
      ],
      "name": "ConsecutiveTransfer",
      "type": "event"
    },
    {
      "anonymous": false,
      "inputs": [
        {
          "indexed": true,
          "internalType": "address",
          "name": "previousOwner",
          "type": "address"
        },
        {
          "indexed": true,
          "internalType": "address",
          "name": "newOwner",
          "type": "address"
        }
      ],
      "name": "OwnershipTransferred",
      "type": "event"
    },
    {
      "anonymous": false,
      "inputs": [
        {
          "indexed": false,
          "internalType": "uint256",
          "name": "_hash",
          "type": "uint256"
        }
      ],
      "name": "ProvenanceHashUpdated",
      "type": "event"
    },
    {
      "anonymous": false,
      "inputs": [
        {
          "indexed": false,
          "internalType": "uint256",
          "name": "_value",
          "type": "uint256"
        }
      ],
      "name": "StartingIndexSet",
      "type": "event"
    },
    {
      "anonymous": false,
      "inputs": [
        {
          "indexed": true,
          "internalType": "address",
          "name": "from",
          "type": "address"
        },
        {
          "indexed": true,
          "internalType": "address",
          "name": "to",
          "type": "address"
        },
        {
          "indexed": true,
          "internalType": "uint256",
          "name": "tokenId",
          "type": "uint256"
        }
      ],
      "name": "Transfer",
      "type": "event"
    },
    {
      "anonymous": false,
      "inputs": [
        {
          "indexed": false,
          "internalType": "address",
          "name": "_whitelistSigner",
          "type": "address"
        }
      ],
      "name": "WhitelistSignerUpdated",
      "type": "event"
    },
    {
      "inputs": [],
      "name": "MAX_MINTABLE",
      "outputs": [
        {
          "internalType": "uint256",
          "name": "",
          "type": "uint256"
        }
      ],
      "stateMutability": "view",
      "type": "function"
    },
    {
      "inputs": [],
      "name": "MAX_SUPPLY",
      "outputs": [
        {
          "internalType": "uint256",
          "name": "",
          "type": "uint256"
        }
      ],
      "stateMutability": "view",
      "type": "function"
    },
    {
      "inputs": [],
      "name": "MINT_PRICE",
      "outputs": [
        {
          "internalType": "uint256",
          "name": "",
          "type": "uint256"
        }
      ],
      "stateMutability": "view",
      "type": "function"
    },
    {
      "inputs": [
        {
          "internalType": "address",
          "name": "to",
          "type": "address"
        },
        {
          "internalType": "uint256",
          "name": "tokenId",
          "type": "uint256"
        }
      ],
      "name": "approve",
      "outputs": [],
      "stateMutability": "payable",
      "type": "function"
    },
    {
      "inputs": [
        {
          "internalType": "address",
          "name": "owner",
          "type": "address"
        }
      ],
      "name": "balanceOf",
      "outputs": [
        {
          "internalType": "uint256",
          "name": "",
          "type": "uint256"
        }
      ],
      "stateMutability": "view",
      "type": "function"
    },
    {
      "inputs": [
        {
          "internalType": "uint256",
          "name": "numberOfTokens",
          "type": "uint256"
        }
      ],
      "name": "buyPublic",
      "outputs": [],
      "stateMutability": "payable",
      "type": "function"
    },
    {
      "inputs": [
        {
          "internalType": "uint256",
          "name": "tokenId",
          "type": "uint256"
        }
      ],
      "name": "explicitOwnershipOf",
      "outputs": [
        {
          "components": [
            {
              "internalType": "address",
              "name": "addr",
              "type": "address"
            },
            {
              "internalType": "uint64",
              "name": "startTimestamp",
              "type": "uint64"
            },
            {
              "internalType": "bool",
              "name": "burned",
              "type": "bool"
            },
            {
              "internalType": "uint24",
              "name": "extraData",
              "type": "uint24"
            }
          ],
          "internalType": "struct IERC721A.TokenOwnership",
          "name": "",
          "type": "tuple"
        }
      ],
      "stateMutability": "view",
      "type": "function"
    },
    {
      "inputs": [
        {
          "internalType": "uint256[]",
          "name": "tokenIds",
          "type": "uint256[]"
        }
      ],
      "name": "explicitOwnershipsOf",
      "outputs": [
        {
          "components": [
            {
              "internalType": "address",
              "name": "addr",
              "type": "address"
            },
            {
              "internalType": "uint64",
              "name": "startTimestamp",
              "type": "uint64"
            },
            {
              "internalType": "bool",
              "name": "burned",
              "type": "bool"
            },
            {
              "internalType": "uint24",
              "name": "extraData",
              "type": "uint24"
            }
          ],
          "internalType": "struct IERC721A.TokenOwnership[]",
          "name": "",
          "type": "tuple[]"
        }
      ],
      "stateMutability": "view",
      "type": "function"
    },
    {
      "inputs": [
        {
          "internalType": "uint256",
          "name": "tokenId",
          "type": "uint256"
        }
      ],
      "name": "getApproved",
      "outputs": [
        {
          "internalType": "address",
          "name": "",
          "type": "address"
        }
      ],
      "stateMutability": "view",
      "type": "function"
    },
    {
      "inputs": [
        {
          "internalType": "address",
          "name": "owner",
          "type": "address"
        },
        {
          "internalType": "address",
          "name": "operator",
          "type": "address"
        }
      ],
      "name": "isApprovedForAll",
      "outputs": [
        {
          "internalType": "bool",
          "name": "",
          "type": "bool"
        }
      ],
      "stateMutability": "view",
      "type": "function"
    },
    {
      "inputs": [
        {
          "internalType": "address",
          "name": "account",
          "type": "address"
        }
      ],
      "name": "mintedCount",
      "outputs": [
        {
          "internalType": "uint256",
          "name": "",
          "type": "uint256"
        }
      ],
      "stateMutability": "view",
      "type": "function"
    },
    {
      "inputs": [],
      "name": "name",
      "outputs": [
        {
          "internalType": "string",
          "name": "",
          "type": "string"
        }
      ],
      "stateMutability": "view",
      "type": "function"
    },
    {
      "inputs": [],
      "name": "owner",
      "outputs": [
        {
          "internalType": "address",
          "name": "",
          "type": "address"
        }
      ],
      "stateMutability": "view",
      "type": "function"
    },
    {
      "inputs": [
        {
          "internalType": "uint256",
          "name": "tokenId",
          "type": "uint256"
        }
      ],
      "name": "ownerOf",
      "outputs": [
        {
          "internalType": "address",
          "name": "",
          "type": "address"
        }
      ],
      "stateMutability": "view",
      "type": "function"
    },
    {
      "inputs": [],
      "name": "renounceOwnership",
      "outputs": [],
      "stateMutability": "nonpayable",
      "type": "function"
    },
    {
      "inputs": [
        {
          "internalType": "address",
          "name": "from",
          "type": "address"
        },
        {
          "internalType": "address",
          "name": "to",
          "type": "address"
        },
        {
          "internalType": "uint256",
          "name": "tokenId",
          "type": "uint256"
        }
      ],
      "name": "safeTransferFrom",
      "outputs": [],
      "stateMutability": "payable",
      "type": "function"
    },
    {
      "inputs": [
        {
          "internalType": "address",
          "name": "from",
          "type": "address"
        },
        {
          "internalType": "address",
          "name": "to",
          "type": "address"
        },
        {
          "internalType": "uint256",
          "name": "tokenId",
          "type": "uint256"
        },
        {
          "internalType": "bytes",
          "name": "_data",
          "type": "bytes"
        }
      ],
      "name": "safeTransferFrom",
      "outputs": [],
      "stateMutability": "payable",
      "type": "function"
    },
    {
      "inputs": [
        {
          "internalType": "address",
          "name": "operator",
          "type": "address"
        },
        {
          "internalType": "bool",
          "name": "approved",
          "type": "bool"
        }
      ],
      "name": "setApprovalForAll",
      "outputs": [],
      "stateMutability": "nonpayable",
      "type": "function"
    },
    {
      "inputs": [
        {
          "internalType": "string",
          "name": "baseURI",
          "type": "string"
        }
      ],
      "name": "setBaseURI",
      "outputs": [],
      "stateMutability": "nonpayable",
      "type": "function"
    },
    {
      "inputs": [
        {
          "internalType": "bytes4",
          "name": "interfaceId",
          "type": "bytes4"
        }
      ],
      "name": "supportsInterface",
      "outputs": [
        {
          "internalType": "bool",
          "name": "",
          "type": "bool"
        }
      ],
      "stateMutability": "view",
      "type": "function"
    },
    {
      "inputs": [],
      "name": "symbol",
      "outputs": [
        {
          "internalType": "string",
          "name": "",
          "type": "string"
        }
      ],
      "stateMutability": "view",
      "type": "function"
    },
    {
      "inputs": [
        {
          "internalType": "uint256",
          "name": "tokenId",
          "type": "uint256"
        }
      ],
      "name": "tokenURI",
      "outputs": [
        {
          "internalType": "string",
          "name": "",
          "type": "string"
        }
      ],
      "stateMutability": "view",
      "type": "function"
    },
    {
      "inputs": [
        {
          "internalType": "address",
          "name": "owner",
          "type": "address"
        }
      ],
      "name": "tokensOfOwner",
      "outputs": [
        {
          "internalType": "uint256[]",
          "name": "",
          "type": "uint256[]"
        }
      ],
      "stateMutability": "view",
      "type": "function"
    },
    {
      "inputs": [
        {
          "internalType": "address",
          "name": "owner",
          "type": "address"
        },
        {
          "internalType": "uint256",
          "name": "start",
          "type": "uint256"
        },
        {
          "internalType": "uint256",
          "name": "stop",
          "type": "uint256"
        }
      ],
      "name": "tokensOfOwnerIn",
      "outputs": [
        {
          "internalType": "uint256[]",
          "name": "",
          "type": "uint256[]"
        }
      ],
      "stateMutability": "view",
      "type": "function"
    },
    {
      "inputs": [],
      "name": "totalSupply",
      "outputs": [
        {
          "internalType": "uint256",
          "name": "",
          "type": "uint256"
        }
      ],
      "stateMutability": "view",
      "type": "function"
    },
    {
      "inputs": [
        {
          "internalType": "address",
          "name": "from",
          "type": "address"
        },
        {
          "internalType": "address",
          "name": "to",
          "type": "address"
        },
        {
          "internalType": "uint256",
          "name": "tokenId",
          "type": "uint256"
        }
      ],
      "name": "transferFrom",
      "outputs": [],
      "stateMutability": "payable",
      "type": "function"
    },
    {
      "inputs": [
        {
          "internalType": "address",
          "name": "newOwner",
          "type": "address"
        }
      ],
      "name": "transferOwnership",
      "outputs": [],
      "stateMutability": "nonpayable",
      "type": "function"
    },
    {
      "inputs": [],
      "name": "withdraw",
      "outputs": [],
      "stateMutability": "nonpayable",
      "type": "function"
    }
  ],
  "transactionHash": "0x99ff0a340e8215fcb2328aaffc6d7382ab9ef1727730bacd6ff69e26a3b1493e",
  "args": [],
  "numDeployments": 2,
  "solcInputHash": "8a4bce03f51811a0ebd9d2cd74686f49",
  "bytecode": "0x60806040523480156200001157600080fd5b506040518060400160405280600b81526020016a4e4654204558414d504c4560a81b8152506040518060400160405280600381526020016213919560ea1b815250816002908162000063919062000181565b50600362000072828262000181565b5050600080555062000084336200008a565b6200024d565b600880546001600160a01b038381166001600160a01b0319831681179093556040519116919082907f8be0079c531659141344cd1fd0a4f28419497f9722a3daafe3b4186f6b6457e090600090a35050565b634e487b7160e01b600052604160045260246000fd5b600181811c908216806200010757607f821691505b6020821081036200012857634e487b7160e01b600052602260045260246000fd5b50919050565b601f8211156200017c57600081815260208120601f850160051c81016020861015620001575750805b601f850160051c820191505b81811015620001785782815560010162000163565b5050505b505050565b81516001600160401b038111156200019d576200019d620000dc565b620001b581620001ae8454620000f2565b846200012e565b602080601f831160018114620001ed5760008415620001d45750858301515b600019600386901b1c1916600185901b17855562000178565b600085815260208120601f198616915b828110156200021e57888601518255948401946001909101908401620001fd565b50858210156200023d5787850151600019600388901b60f8161c191681555b5050505050600190811b01905550565b611ef9806200025d6000396000f3fe6080604052600436106101b75760003560e01c8063715018a6116100ec578063c002d23d1161008a578063c87b56dd11610064578063c87b56dd14610498578063e985e9c5146104b8578063f2fde38b14610501578063fddcb5ea1461052157600080fd5b8063c002d23d1461043e578063c0c8dd0714610458578063c23dc68f1461046b57600080fd5b806395d89b41116100c657806395d89b41146103d657806399a2557a146103eb578063a22cb4651461040b578063b88d4fde1461042b57600080fd5b8063715018a6146103765780638462151c1461038b5780638da5cb5b146103b857600080fd5b80633ccfd60b1161015957806355f804b31161013357806355f804b3146102e95780635bbb2177146103095780636352211e1461033657806370a082311461035657600080fd5b80633ccfd60b146102ac5780633f879faf146102c157806342842e0e146102d657600080fd5b8063095ea7b311610195578063095ea7b31461024b57806318160ddd1461026057806323b872dd1461028357806332cb6b0c1461029657600080fd5b806301ffc9a7146101bc57806306fdde03146101f1578063081812fc14610213575b600080fd5b3480156101c857600080fd5b506101dc6101d7366004611782565b610557565b60405190151581526020015b60405180910390f35b3480156101fd57600080fd5b5061020661063c565b6040516101e891906117ef565b34801561021f57600080fd5b5061023361022e366004611802565b6106ce565b6040516001600160a01b0390911681526020016101e8565b61025e610259366004611837565b61072b565b005b34801561026c57600080fd5b50600154600054035b6040519081526020016101e8565b61025e610291366004611861565b6107fc565b3480156102a257600080fd5b5061027560001981565b3480156102b857600080fd5b5061025e610a13565b3480156102cd57600080fd5b50610275600581565b61025e6102e4366004611861565b610abb565b3480156102f557600080fd5b5061025e610304366004611929565b610adb565b34801561031557600080fd5b50610329610324366004611972565b610b2b565b6040516101e891906119e7565b34801561034257600080fd5b50610233610351366004611802565b610bf7565b34801561036257600080fd5b50610275610371366004611a64565b610c02565b34801561038257600080fd5b5061025e610c6a565b34801561039757600080fd5b506103ab6103a6366004611a64565b610c7e565b6040516101e89190611a7f565b3480156103c457600080fd5b506008546001600160a01b0316610233565b3480156103e257600080fd5b50610206610d7f565b3480156103f757600080fd5b506103ab610406366004611ab7565b610d8e565b34801561041757600080fd5b5061025e610426366004611aea565b610f21565b61025e610439366004611b26565b610f8d565b34801561044a57600080fd5b50610275655af3107a400081565b61025e610466366004611802565b610fd7565b34801561047757600080fd5b5061048b610486366004611802565b611060565b6040516101e89190611ba2565b3480156104a457600080fd5b506102066104b3366004611802565b6110d8565b3480156104c457600080fd5b506101dc6104d3366004611be7565b6001600160a01b03918216600090815260076020908152604080832093909416825291909152205460ff1690565b34801561050d57600080fd5b5061025e61051c366004611a64565b611124565b34801561052d57600080fd5b5061027561053c366004611a64565b6001600160a01b031660009081526009602052604090205490565b60007f01ffc9a7000000000000000000000000000000000000000000000000000000007fffffffff00000000000000000000000000000000000000000000000000000000831614806105ea57507f80ac58cd000000000000000000000000000000000000000000000000000000007fffffffff000000000000000000000000000000000000000000000000000000008316145b8061063657507f5b5e139f000000000000000000000000000000000000000000000000000000007fffffffff000000000000000000000000000000000000000000000000000000008316145b92915050565b60606002805461064b90611c1a565b80601f016020809104026020016040519081016040528092919081815260200182805461067790611c1a565b80156106c45780601f10610699576101008083540402835291602001916106c4565b820191906000526020600020905b8154815290600101906020018083116106a757829003601f168201915b5050505050905090565b60006106d9826111b1565b61070f576040517fcf4700e400000000000000000000000000000000000000000000000000000000815260040160405180910390fd5b506000908152600660205260409020546001600160a01b031690565b600061073682610bf7565b9050336001600160a01b038216146107885761075281336104d3565b610788576040517fcfb3b94200000000000000000000000000000000000000000000000000000000815260040160405180910390fd5b60008281526006602052604080822080547fffffffffffffffffffffffff0000000000000000000000000000000000000000166001600160a01b0387811691821790925591518593918516917f8c5be1e5ebec7d5bd14f71427d1e84f3dd0314c0f7b2291e5b200ac8c7c3b92591a4505050565b6000610807826111d8565b9050836001600160a01b0316816001600160a01b031614610854576040517fa114810000000000000000000000000000000000000000000000000000000000815260040160405180910390fd5b60008281526006602052604090208054338082146001600160a01b038816909114176108ba5761088486336104d3565b6108ba576040517f59c896be00000000000000000000000000000000000000000000000000000000815260040160405180910390fd5b6001600160a01b0385166108fa576040517fea553b3400000000000000000000000000000000000000000000000000000000815260040160405180910390fd5b801561090557600082555b6001600160a01b038681166000908152600560205260408082208054600019019055918716808252919020805460010190554260a01b177c0200000000000000000000000000000000000000000000000000000000176000858152600460205260408120919091557c0200000000000000000000000000000000000000000000000000000000841690036109c9576001840160008181526004602052604081205490036109c75760005481146109c75760008181526004602052604090208490555b505b83856001600160a01b0316876001600160a01b03167fddf252ad1be2c89b69c2b068fc378daa952ba7f163c4a11628f55a4df523b3ef60405160405180910390a45b505050505050565b610a1b611258565b604051600090339047908381818185875af1925050503d8060008114610a5d576040519150601f19603f3d011682016040523d82523d6000602084013e610a62565b606091505b5050905080610ab85760405162461bcd60e51b815260206004820152600f60248201527f5769746864726177206661696c6564000000000000000000000000000000000060448201526064015b60405180910390fd5b50565b610ad683838360405180602001604052806000815250610f8d565b505050565b610ae3611258565b600a610aef8282611c9a565b507f24a9152dc695ecc801ad580886331ee12d7aac0fa2ae341a5ae3c2ccae36cb4f600a604051610b209190611d5a565b60405180910390a150565b60608160008167ffffffffffffffff811115610b4957610b4961189d565b604051908082528060200260200182016040528015610b9b57816020015b604080516080810182526000808252602080830182905292820181905260608201528252600019909201910181610b675790505b50905060005b828114610bee57610bc9868683818110610bbd57610bbd611de5565b90506020020135611060565b828281518110610bdb57610bdb611de5565b6020908102919091010152600101610ba1565b50949350505050565b6000610636826111d8565b60006001600160a01b038216610c44576040517f8f4eb60400000000000000000000000000000000000000000000000000000000815260040160405180910390fd5b506001600160a01b031660009081526005602052604090205467ffffffffffffffff1690565b610c72611258565b610c7c60006112b2565b565b60606000806000610c8e85610c02565b905060008167ffffffffffffffff811115610cab57610cab61189d565b604051908082528060200260200182016040528015610cd4578160200160208202803683370190505b5060408051608081018252600080825260208201819052918101829052606081018290529192505b838614610d7357610d0c8161131c565b91508160400151610d6b5781516001600160a01b031615610d2c57815194505b876001600160a01b0316856001600160a01b031603610d6b5780838780600101985081518110610d5e57610d5e611de5565b6020026020010181815250505b600101610cfc565b50909695505050505050565b60606003805461064b90611c1a565b6060818310610dc9576040517f32c1995a00000000000000000000000000000000000000000000000000000000815260040160405180910390fd5b600080610dd560005490565b905080841115610de3578093505b6000610dee87610c02565b905084861015610e0d5785850381811015610e07578091505b50610e11565b5060005b60008167ffffffffffffffff811115610e2c57610e2c61189d565b604051908082528060200260200182016040528015610e55578160200160208202803683370190505b50905081600003610e6b579350610f1a92505050565b6000610e7688611060565b905060008160400151610e87575080515b885b888114158015610e995750848714155b15610f0e57610ea78161131c565b92508260400151610f065782516001600160a01b031615610ec757825191505b8a6001600160a01b0316826001600160a01b031603610f065780848880600101995081518110610ef957610ef9611de5565b6020026020010181815250505b600101610e89565b50505092835250909150505b9392505050565b3360008181526007602090815260408083206001600160a01b03871680855290835292819020805460ff191686151590811790915590519081529192917f17307eab39ab6107e8899845ad3d59bd9653f200f220920489ca2b5937696c31910160405180910390a35050565b610f988484846107fc565b6001600160a01b0383163b15610fd157610fb48484848461139b565b610fd1576040516368d2bf6b60e11b815260040160405180910390fd5b50505050565b33600090815260096020526040812054610ff2908390611e11565b90506000198261100160005490565b61100b9190611e11565b111561101657600080fd5b600581111561102457600080fd5b611034655af3107a400083611e24565b34101561104057600080fd5b33600081815260096020526040902082905561105c90836114d1565b5050565b60408051608080820183526000808352602080840182905283850182905260608085018390528551938401865282845290830182905293820181905292810183905290915060005483106110b45792915050565b6110bd8361131c565b90508060400151156110cf5792915050565b610f1a836114eb565b60606110e3826111b1565b6110ec57600080fd5b6110f4611563565b6110fd83611572565b60405160200161110e929190611e3b565b6040516020818303038152906040529050919050565b61112c611258565b6001600160a01b0381166111a85760405162461bcd60e51b815260206004820152602660248201527f4f776e61626c653a206e6577206f776e657220697320746865207a65726f206160448201527f64647265737300000000000000000000000000000000000000000000000000006064820152608401610aaf565b610ab8816112b2565b6000805482108015610636575050600090815260046020526040902054600160e01b161590565b6000816000548110156112265760008181526004602052604081205490600160e01b82169003611224575b80600003610f1a575060001901600081815260046020526040902054611203565b505b6040517fdf2d9b4200000000000000000000000000000000000000000000000000000000815260040160405180910390fd5b6008546001600160a01b03163314610c7c5760405162461bcd60e51b815260206004820181905260248201527f4f776e61626c653a2063616c6c6572206973206e6f7420746865206f776e65726044820152606401610aaf565b600880546001600160a01b038381167fffffffffffffffffffffffff0000000000000000000000000000000000000000831681179093556040519116919082907f8be0079c531659141344cd1fd0a4f28419497f9722a3daafe3b4186f6b6457e090600090a35050565b60408051608081018252600080825260208201819052918101829052606081019190915260008281526004602052604090205461063690604080516080810182526001600160a01b038316815260a083901c67ffffffffffffffff166020820152600160e01b831615159181019190915260e89190911c606082015290565b6040517f150b7a020000000000000000000000000000000000000000000000000000000081526000906001600160a01b0385169063150b7a02906113e9903390899088908890600401611e6a565b6020604051808303816000875af1925050508015611424575060408051601f3d908101601f1916820190925261142191810190611ea6565b60015b611482573d808015611452576040519150601f19603f3d011682016040523d82523d6000602084013e611457565b606091505b50805160000361147a576040516368d2bf6b60e11b815260040160405180910390fd5b805181602001fd5b7fffffffff00000000000000000000000000000000000000000000000000000000167f150b7a02000000000000000000000000000000000000000000000000000000001490505b949350505050565b61105c8282604051806020016040528060008152506115b6565b60408051608081018252600080825260208201819052918101829052606081019190915261063661151b836111d8565b604080516080810182526001600160a01b038316815260a083901c67ffffffffffffffff166020820152600160e01b831615159181019190915260e89190911c606082015290565b6060600a805461064b90611c1a565b606060a06040510180604052602081039150506000815280825b600183039250600a81066030018353600a90048061158c5750819003601f19909101908152919050565b6115c08383611623565b6001600160a01b0383163b15610ad6576000548281035b6115ea600086838060010194508661139b565b611607576040516368d2bf6b60e11b815260040160405180910390fd5b8181106115d757816000541461161c57600080fd5b5050505050565b6000805490829003611661576040517fb562e8dd00000000000000000000000000000000000000000000000000000000815260040160405180910390fd5b6001600160a01b03831660008181526005602090815260408083208054680100000000000000018802019055848352600490915281206001851460e11b4260a01b178317905582840190839083907fddf252ad1be2c89b69c2b068fc378daa952ba7f163c4a11628f55a4df523b3ef8180a4600183015b81811461171057808360007fddf252ad1be2c89b69c2b068fc378daa952ba7f163c4a11628f55a4df523b3ef600080a46001016116d8565b508160000361174b576040517f2e07630000000000000000000000000000000000000000000000000000000000815260040160405180910390fd5b60005550505050565b7fffffffff0000000000000000000000000000000000000000000000000000000081168114610ab857600080fd5b60006020828403121561179457600080fd5b8135610f1a81611754565b60005b838110156117ba5781810151838201526020016117a2565b50506000910152565b600081518084526117db81602086016020860161179f565b601f01601f19169290920160200192915050565b602081526000610f1a60208301846117c3565b60006020828403121561181457600080fd5b5035919050565b80356001600160a01b038116811461183257600080fd5b919050565b6000806040838503121561184a57600080fd5b6118538361181b565b946020939093013593505050565b60008060006060848603121561187657600080fd5b61187f8461181b565b925061188d6020850161181b565b9150604084013590509250925092565b634e487b7160e01b600052604160045260246000fd5b600067ffffffffffffffff808411156118ce576118ce61189d565b604051601f8501601f19908116603f011681019082821181831017156118f6576118f661189d565b8160405280935085815286868601111561190f57600080fd5b858560208301376000602087830101525050509392505050565b60006020828403121561193b57600080fd5b813567ffffffffffffffff81111561195257600080fd5b8201601f8101841361196357600080fd5b6114c9848235602084016118b3565b6000806020838503121561198557600080fd5b823567ffffffffffffffff8082111561199d57600080fd5b818501915085601f8301126119b157600080fd5b8135818111156119c057600080fd5b8660208260051b85010111156119d557600080fd5b60209290920196919550909350505050565b6020808252825182820181905260009190848201906040850190845b81811015610d7357611a518385516001600160a01b03815116825267ffffffffffffffff602082015116602083015260408101511515604083015262ffffff60608201511660608301525050565b9284019260809290920191600101611a03565b600060208284031215611a7657600080fd5b610f1a8261181b565b6020808252825182820181905260009190848201906040850190845b81811015610d7357835183529284019291840191600101611a9b565b600080600060608486031215611acc57600080fd5b611ad58461181b565b95602085013595506040909401359392505050565b60008060408385031215611afd57600080fd5b611b068361181b565b915060208301358015158114611b1b57600080fd5b809150509250929050565b60008060008060808587031215611b3c57600080fd5b611b458561181b565b9350611b536020860161181b565b925060408501359150606085013567ffffffffffffffff811115611b7657600080fd5b8501601f81018713611b8757600080fd5b611b96878235602084016118b3565b91505092959194509250565b81516001600160a01b0316815260208083015167ffffffffffffffff169082015260408083015115159082015260608083015162ffffff169082015260808101610636565b60008060408385031215611bfa57600080fd5b611c038361181b565b9150611c116020840161181b565b90509250929050565b600181811c90821680611c2e57607f821691505b602082108103611c4e57634e487b7160e01b600052602260045260246000fd5b50919050565b601f821115610ad657600081815260208120601f850160051c81016020861015611c7b5750805b601f850160051c820191505b81811015610a0b57828155600101611c87565b815167ffffffffffffffff811115611cb457611cb461189d565b611cc881611cc28454611c1a565b84611c54565b602080601f831160018114611cfd5760008415611ce55750858301515b600019600386901b1c1916600185901b178555610a0b565b600085815260208120601f198616915b82811015611d2c57888601518255948401946001909101908401611d0d565b5085821015611d4a5787850151600019600388901b60f8161c191681555b5050505050600190811b01905550565b6000602080835260008454611d6e81611c1a565b80848701526040600180841660008114611d8f5760018114611da957611dd7565b60ff198516838a01528284151560051b8a01019550611dd7565b896000528660002060005b85811015611dcf5781548b8201860152908301908801611db4565b8a0184019650505b509398975050505050505050565b634e487b7160e01b600052603260045260246000fd5b634e487b7160e01b600052601160045260246000fd5b8082018082111561063657610636611dfb565b808202811582820484141761063657610636611dfb565b60008351611e4d81846020880161179f565b835190830190611e6181836020880161179f565b01949350505050565b60006001600160a01b03808716835280861660208401525083604083015260806060830152611e9c60808301846117c3565b9695505050505050565b600060208284031215611eb857600080fd5b8151610f1a8161175456fea26469706673582212200ca1dcf1459ddad7306138dd84b44d154f24c44eb1f4aae68286cab62012d34864736f6c63430008110033",
  "devdoc": {
    "kind": "dev",
    "methods": {
      "approve(address,uint256)": {
        "details": "Gives permission to `to` to transfer `tokenId` token to another account. The approval is cleared when the token is transferred. Only a single account can be approved at a time, so approving the zero address clears previous approvals. Requirements: - The caller must own the token or be an approved operator. - `tokenId` must exist. Emits an {Approval} event."
      },
      "balanceOf(address)": {
        "details": "Returns the number of tokens in `owner`'s account."
      },
      "buyPublic(uint256)": {
        "params": {
          "numberOfTokens": "the number of NFTs to buy"
        }
      },
      "explicitOwnershipOf(uint256)": {
        "details": "Returns the `TokenOwnership` struct at `tokenId` without reverting. If the `tokenId` is out of bounds: - `addr = address(0)` - `startTimestamp = 0` - `burned = false` - `extraData = 0` If the `tokenId` is burned: - `addr = <Address of owner before token was burned>` - `startTimestamp = <Timestamp when token was burned>` - `burned = true` - `extraData = <Extra data when token was burned>` Otherwise: - `addr = <Address of owner>` - `startTimestamp = <Timestamp of start of ownership>` - `burned = false` - `extraData = <Extra data at start of ownership>`"
      },
      "explicitOwnershipsOf(uint256[])": {
        "details": "Returns an array of `TokenOwnership` structs at `tokenIds` in order. See {ERC721AQueryable-explicitOwnershipOf}"
      },
      "getApproved(uint256)": {
        "details": "Returns the account approved for `tokenId` token. Requirements: - `tokenId` must exist."
      },
      "isApprovedForAll(address,address)": {
        "details": "Returns if the `operator` is allowed to manage all of the assets of `owner`. See {setApprovalForAll}."
      },
      "mintedCount(address)": {
        "params": {
          "account": "The account to query for"
        }
      },
      "name()": {
        "details": "Returns the token collection name."
      },
      "owner()": {
        "details": "Returns the address of the current owner."
      },
      "ownerOf(uint256)": {
        "details": "Returns the owner of the `tokenId` token. Requirements: - `tokenId` must exist."
      },
      "renounceOwnership()": {
        "details": "Leaves the contract without owner. It will not be possible to call `onlyOwner` functions anymore. Can only be called by the current owner. NOTE: Renouncing ownership will leave the contract without an owner, thereby removing any functionality that is only available to the owner."
      },
      "safeTransferFrom(address,address,uint256)": {
        "details": "Equivalent to `safeTransferFrom(from, to, tokenId, '')`."
      },
      "safeTransferFrom(address,address,uint256,bytes)": {
        "details": "Safely transfers `tokenId` token from `from` to `to`. Requirements: - `from` cannot be the zero address. - `to` cannot be the zero address. - `tokenId` token must exist and be owned by `from`. - If the caller is not `from`, it must be approved to move this token by either {approve} or {setApprovalForAll}. - If `to` refers to a smart contract, it must implement {IERC721Receiver-onERC721Received}, which is called upon a safe transfer. Emits a {Transfer} event."
      },
      "setApprovalForAll(address,bool)": {
        "details": "Approve or remove `operator` as an operator for the caller. Operators can call {transferFrom} or {safeTransferFrom} for any token owned by the caller. Requirements: - The `operator` cannot be the caller. Emits an {ApprovalForAll} event."
      },
      "supportsInterface(bytes4)": {
        "details": "Returns true if this contract implements the interface defined by `interfaceId`. See the corresponding [EIP section](https://eips.ethereum.org/EIPS/eip-165#how-interfaces-are-identified) to learn more about how these ids are created. This function call must use less than 30000 gas."
      },
      "symbol()": {
        "details": "Returns the token collection symbol."
      },
      "tokenURI(uint256)": {
        "params": {
          "tokenId": "token ID"
        }
      },
      "tokensOfOwner(address)": {
        "details": "Returns an array of token IDs owned by `owner`. This function scans the ownership mapping and is O(`totalSupply`) in complexity. It is meant to be called off-chain. See {ERC721AQueryable-tokensOfOwnerIn} for splitting the scan into multiple smaller scans if the collection is large enough to cause an out-of-gas error (10K collections should be fine)."
      },
      "tokensOfOwnerIn(address,uint256,uint256)": {
        "details": "Returns an array of token IDs owned by `owner`, in the range [`start`, `stop`) (i.e. `start <= tokenId < stop`). This function allows for tokens to be queried if the collection grows too big for a single call of {ERC721AQueryable-tokensOfOwner}. Requirements: - `start < stop`"
      },
      "totalSupply()": {
        "details": "Returns the total number of tokens in existence. Burned tokens will reduce the count. To get the total number of tokens minted, please see {_totalMinted}."
      },
      "transferFrom(address,address,uint256)": {
        "details": "Transfers `tokenId` from `from` to `to`. Requirements: - `from` cannot be the zero address. - `to` cannot be the zero address. - `tokenId` token must be owned by `from`. - If the caller is not `from`, it must be approved to move this token by either {approve} or {setApprovalForAll}. Emits a {Transfer} event."
      },
      "transferOwnership(address)": {
        "details": "Transfers ownership of the contract to a new account (`newOwner`). Can only be called by the current owner."
      }
    },
    "version": 1
  },
  "userdoc": {
    "errors": {
      "ApprovalCallerNotOwnerNorApproved()": [
        {
          "notice": "The caller must own the token or be an approved operator."
        }
      ],
      "ApprovalQueryForNonexistentToken()": [
        {
          "notice": "The token does not exist."
        }
      ],
      "BalanceQueryForZeroAddress()": [
        {
          "notice": "Cannot query the balance for the zero address."
        }
      ],
      "InvalidQueryRange()": [
        {
          "notice": "Invalid query range (`start` >= `stop`)."
        }
      ],
      "MintERC2309QuantityExceedsLimit()": [
        {
          "notice": "The `quantity` minted with ERC2309 exceeds the safety limit."
        }
      ],
      "MintToZeroAddress()": [
        {
          "notice": "Cannot mint to the zero address."
        }
      ],
      "MintZeroQuantity()": [
        {
          "notice": "The quantity of tokens minted must be more than zero."
        }
      ],
      "OwnerQueryForNonexistentToken()": [
        {
          "notice": "The token does not exist."
        }
      ],
      "OwnershipNotInitializedForExtraData()": [
        {
          "notice": "The `extraData` cannot be set on an unintialized ownership slot."
        }
      ],
      "TransferCallerNotOwnerNorApproved()": [
        {
          "notice": "The caller must own the token or be an approved operator."
        }
      ],
      "TransferFromIncorrectOwner()": [
        {
          "notice": "The token must be owned by `from`."
        }
      ],
      "TransferToNonERC721ReceiverImplementer()": [
        {
          "notice": "Cannot safely transfer to a contract that does not implement the ERC721Receiver interface."
        }
      ],
      "TransferToZeroAddress()": [
        {
          "notice": "Cannot transfer to the zero address."
        }
      ],
      "URIQueryForNonexistentToken()": [
        {
          "notice": "The token does not exist."
        }
      ]
    },
    "kind": "user",
    "methods": {
      "buyPublic(uint256)": {
        "notice": "Allows users to buy during public sale"
      },
      "mintedCount(address)": {
        "notice": "Returns the number of tokens minted by an account"
      },
      "setBaseURI(string)": {
        "notice": "Set the base URI, must not be revealed"
      },
      "tokenURI(uint256)": {
        "notice": "Get token's URI. In case of delayed reveal we give user the json of the placeholer metadata."
      }
    },
    "version": 1
  },
  "storageLayout": {
    "storage": [
      {
        "astId": 763,
        "contract": "contracts/NFT.sol:NFT",
        "label": "_currentIndex",
        "offset": 0,
        "slot": "0",
        "type": "t_uint256"
      },
      {
        "astId": 765,
        "contract": "contracts/NFT.sol:NFT",
        "label": "_burnCounter",
        "offset": 0,
        "slot": "1",
        "type": "t_uint256"
      },
      {
        "astId": 767,
        "contract": "contracts/NFT.sol:NFT",
        "label": "_name",
        "offset": 0,
        "slot": "2",
        "type": "t_string_storage"
      },
      {
        "astId": 769,
        "contract": "contracts/NFT.sol:NFT",
        "label": "_symbol",
        "offset": 0,
        "slot": "3",
        "type": "t_string_storage"
      },
      {
        "astId": 773,
        "contract": "contracts/NFT.sol:NFT",
        "label": "_packedOwnerships",
        "offset": 0,
        "slot": "4",
        "type": "t_mapping(t_uint256,t_uint256)"
      },
      {
        "astId": 777,
        "contract": "contracts/NFT.sol:NFT",
        "label": "_packedAddressData",
        "offset": 0,
        "slot": "5",
        "type": "t_mapping(t_address,t_uint256)"
      },
      {
        "astId": 782,
        "contract": "contracts/NFT.sol:NFT",
        "label": "_tokenApprovals",
        "offset": 0,
        "slot": "6",
        "type": "t_mapping(t_uint256,t_struct(TokenApprovalRef)695_storage)"
      },
      {
        "astId": 788,
        "contract": "contracts/NFT.sol:NFT",
        "label": "_operatorApprovals",
        "offset": 0,
        "slot": "7",
        "type": "t_mapping(t_address,t_mapping(t_address,t_bool))"
      },
      {
        "astId": 7,
        "contract": "contracts/NFT.sol:NFT",
        "label": "_owner",
        "offset": 0,
        "slot": "8",
        "type": "t_address"
      },
      {
        "astId": 512,
        "contract": "contracts/NFT.sol:NFT",
        "label": "_mintedCount",
        "offset": 0,
        "slot": "9",
        "type": "t_mapping(t_address,t_uint256)"
      },
      {
        "astId": 514,
        "contract": "contracts/NFT.sol:NFT",
        "label": "_baseUri",
        "offset": 0,
        "slot": "10",
        "type": "t_string_storage"
      }
    ],
    "types": {
      "t_address": {
        "encoding": "inplace",
        "label": "address",
        "numberOfBytes": "20"
      },
      "t_bool": {
        "encoding": "inplace",
        "label": "bool",
        "numberOfBytes": "1"
      },
      "t_mapping(t_address,t_bool)": {
        "encoding": "mapping",
        "key": "t_address",
        "label": "mapping(address => bool)",
        "numberOfBytes": "32",
        "value": "t_bool"
      },
      "t_mapping(t_address,t_mapping(t_address,t_bool))": {
        "encoding": "mapping",
        "key": "t_address",
        "label": "mapping(address => mapping(address => bool))",
        "numberOfBytes": "32",
        "value": "t_mapping(t_address,t_bool)"
      },
      "t_mapping(t_address,t_uint256)": {
        "encoding": "mapping",
        "key": "t_address",
        "label": "mapping(address => uint256)",
        "numberOfBytes": "32",
        "value": "t_uint256"
      },
      "t_mapping(t_uint256,t_struct(TokenApprovalRef)695_storage)": {
        "encoding": "mapping",
        "key": "t_uint256",
        "label": "mapping(uint256 => struct ERC721A.TokenApprovalRef)",
        "numberOfBytes": "32",
        "value": "t_struct(TokenApprovalRef)695_storage"
      },
      "t_mapping(t_uint256,t_uint256)": {
        "encoding": "mapping",
        "key": "t_uint256",
        "label": "mapping(uint256 => uint256)",
        "numberOfBytes": "32",
        "value": "t_uint256"
      },
      "t_string_storage": {
        "encoding": "bytes",
        "label": "string",
        "numberOfBytes": "32"
      },
      "t_struct(TokenApprovalRef)695_storage": {
        "encoding": "inplace",
        "label": "struct ERC721A.TokenApprovalRef",
        "members": [
          {
            "astId": 694,
            "contract": "contracts/NFT.sol:NFT",
            "label": "value",
            "offset": 0,
            "slot": "0",
            "type": "t_address"
          }
        ],
        "numberOfBytes": "32"
      },
      "t_uint256": {
        "encoding": "inplace",
        "label": "uint256",
        "numberOfBytes": "32"
      }
    }
  }
}